:020000040000FA
:060000000000000096293B
:08000800F000030EF1000A08EC
:10001000F2002108F3002208F400831203130B1DE1
:1000200018280B1188308100A008031DA00372203E
:100030008C1A02217308A1007408A20072088A00B9
:10004000710E8300F00E700E09000F3982072B34F9
:1000500033343B342B3433343B342B3433343B3460
:100060002B3433343B342B342B342B342B34C3011B
:10007000C401C501C601C701C801C901CA01CB013C
:10008000CC01CD01CE01CF01D001D101D201D301EC
:10009000D401D501D601D701D801D901DA01003048
:1000A000AB00B300BB000130AC00B400BC000230B8
:1000B000AD00B500BD000430AE00B600BE00083093
:1000C000AF00B700BF001030B000B800C000203053
:1000D000B100B900C1004030B200BA00C200DB017B
:1000E000DC01080000005B08DC008313433084005F
:1000F00000085C02031C051403180510840A00089C
:100100005C02031C051503180511840A00085C0233
:10011000031C851403188510840A1030DC023F305C
:10012000DC0500085C02031C851603188512840A8E
:1001300000085C02031C051603180512840A000857
:100140005C02031C851503188511840A1030DC023B
:100150003F30DC0500085C02031C0714031807107D
:10016000840A00085C02031C071603180712840A9D
:1001700000085C02031C871603188712840A1030DB
:10018000DC023F30DC0500085C02031C8715031805
:100190008711840A00085C02031C07150318071165
:1001A000840A00085C02031C871403188710840A61
:1001B0001030DC023F30DC05DB0A5B1BDB01080092
:1001C0008316031324309800831203139030980091
:1001D0008316031708308700831603131F30990016
:1001E0008316031300309A00831603138C128312B4
:1001F0000313A301A401A501A601A701A801A90158
:10020000AA0108001A08A3000739A600230E0F3917
:10021000A500F5302306031D0F29AA14080000309D
:10022000240603191D29013024060319252902304B
:10023000240603194329A4010800F0302306031DF6
:1002400008002A140130A40008000E302506031906
:100250002E290C302502031C322908000230A4008C
:10026000A801080025082520260784000008A7000B
:10027000433025078400270880004F30250784007D
:100280002608800008000F302506031954292B305A
:1002900084002808840723087F398000A80A1830C2
:1002A00028020318542908000130A4005829080026
:1002B0000030A1004F3021078400210825200007CD
:1002C00084000008A2004330210784002208800037
:1002D000A10A0C302102031C5A2908000C1E080038
:1002E0002A187529AA18912908002A100030CE2151
:1002F0009900000000000C1E7B290130CE219900DE
:10030000000000000C1E82290230CE21990000005E
:1003100000000C1E89290330CE2199000000000046
:100320000800AA10413024079900080064008312D5
:100330000313850186018701831603138501FF30AE
:100340008600803087008316031788018901831691
:1003500003130030810083120313883081000B11D6
:100360008B1683120313A001E02037200B178B1785
:10037000B9296400A008031DC9299C30A0000030E1
:100380002406031DC929000055300C1EC9299900F7
:100390000000831203136E21B929B92983120317B0
:1003A0008D00831603178C130C14831203170C088B
:0603B00083120313080094
:08420000760031002E003000B1
:00000001FF
