:020000040000FA
:060000000000000062296F
:08000800F000030EF1000A08EC
:10001000F200831203130B1D14280B11883081008A
:10002000A008031DA0035E208C1AED2072088A0030
:10003000710E8300F00E700E09000F39820728340C
:1000400028342834283428342834283428342834D0
:100050002834283428342834283428342834C0015B
:10006000C101C201C301C401C501C601C701C80164
:10007000C901CA01CB010030A800B000B8000130AE
:10008000A900B100B9000230AA00B200BA000430E1
:10009000AB00B300BB000830AC00B400BC001030B3
:1000A000AD00B500BD002030AE00B600BE0040304F
:1000B000AF00B700BF00CC01CD01080000004C0824
:1000C000CD0083134030840000084D02031C05144A
:1000D00003180510840A00084D02031C05150318B7
:1000E0000511840A00084D02031C851403188510AD
:1000F000840A1030CD023F30CD0500084D02031CAC
:10010000851603188512840A00084D02031C051683
:1001100003180512840A00084D02031C85150318F4
:100120008511840A1030CD023F30CD0500084D0204
:10013000031C071403180710840A00084D02031C4F
:10014000871603188712840A00084D02031C07163D
:1001500003180712840A1030CD023F30CD05000885
:100160004D02031C871503188711840A00084D02ED
:10017000031C071503180711840A00084D02031C0D
:10018000871403188710840A1030CD023F30CD0544
:10019000CC0A4C1BCC0108008316031324309800B2
:1001A00083120313903098008316031708308700DA
:1001B000831603131F3099008316031300309A002F
:1001C000831603138C1283120313A101A201A3014E
:1001D000A401A501A601A70108001A08A10007397A
:1001E000A400210E0F39A300F53021060319A7142E
:1001F00000302206031906290130220603190E29B0
:100200000230220603192729A2010800F030210636
:10021000031D080027140130A20008000E30230639
:10022000031917290C302302031C1B290800023074
:10023000A200A501080023081D202407840000084F
:10024000A4004030230784002408800008000F30F9
:1002500023060319372918302502031C080028300B
:1002600084002508840721088000A50A08000130C1
:10027000A20008000C1E080027184129A7185D29B4
:100280000800271000309A219900000000000C1E81
:10029000472901309A219900000000000C1E4E29C8
:1002A00002309A219900000000000C1E55290330ED
:1002B0009A219900000000000800A7104130220791
:1002C00099000800640083120313850186018701E9
:1002D000831603138501FF30860080308700831664
:1002E00003178801890183160313003081008312EC
:1002F0000313883081000B118B1683120313A001A6
:10030000CC202F200B178B1785296400A008031D14
:1003100095299C30A00000302206031D952900007D
:1003200055300C1E952999000000831203133A21C1
:1003300085298529831203178D00831603178C13D3
:0E0340000C14831203170C0883120313080019
:08420000760031002E003000B1
:00000001FF
