:020000040000FA
:0600000000000000B8281A
:08000800F000030EF1000A08EC
:10001000F200831203130B1D13280B118330810090
:10002000A008031DA0038C1A102172088A00710E0B
:100030008300F00E700E0900BC01BD01BE01BF01BE
:10004000C001C101C201C301C401C501C601C7018C
:100050000030A400AC00B4000130A500AD00B50034
:100060000230A600AE00B6000430A700AF00B70013
:100070000830A800B000B8001030A900B100B900E5
:100080002030AA00B200BA003F30AB00B300BB0082
:10009000C901CA0108004908CA0083133C30840022
:1000A0004A08000203180714031C0710840A4A08B0
:1000B000000203188714031C8710840A4A080002F0
:1000C00003180715031C0711840A4A08103C3F391E
:1000D000CA004A08000203180716031C0712840A04
:1000E0004A08000203188716031C8712840A4A086C
:1000F000000203180717031C0713840A4A08103C60
:100100003F39CA004A08000203180514031C0510F1
:10011000840A4A08000203188514031C8510840A07
:100120004A08000203180515031C0511840A4A0831
:10013000103C3F39CA004A08000203188515031C09
:100140008511840A4A08000203180516031C0512CB
:10015000840A4A08000203188516031C8512840AC3
:100160004A08103C3F39CA00C90A491BC9010800A6
:10017000640083120313850186018701831603132C
:100180008501FF308600803087008316031304301A
:10019000810083120313013081000B118B1683162B
:1001A00003132430980083120313903098008316B1
:1001B000031708308700831603131F309900831636
:1001C000031300309A00831603138C128312031357
:1001D0001C200B178B17EC286400A008031D0B29AB
:1001E0000130A0004B20A108031DA103A108031D9D
:1001F0000B290A30A100A208031DA203A208031DB7
:100200000B290A30A20000005530981C0B298312DC
:1002100003139900000083120313EC28EC2800005C
:0C0220001A08A300000000000000080005
:04022C000034003466
:00000001FF
